:0215AF00C10772
:101A9900538E7F43890143B80243B702758CEEE444
:091AA900F58AD2A9D2AFD20722BE
:0D000E00AD07AC068C8C8D8AC207D28C2207
:03000B00021BB520
:091BB500758CEE758A00D207322E
:101AB200538EBF43891043B80443B704E4F58BF552
:081AC2008DD2ABD2AFC28E221F
:03001B00021BCFF6
:071BCF00758B00758D0032DB
:101B2A0075985043878043B81043B710759CF443A7
:071B3A008E11D2ACD2AF22E4
:081BC7008F993099FDC29922AB
:1019BC0043A210438E08759A50538EFB43B50143D6
:0E19CC00B601759CF4438E1043AF01D2AF22DA
:0B0026008F9BE59A30E1FB539AFD220E
:030043000219DAC5
:0919DA00C0E0C0D075D000C007C8
:0D19E300E59A30E008539AFEAF9B120026F3
:0719F000D007D0D0D0E03297
:051B7800FCD2CB7F054B
:0A1B7D00E4FEEEC39F50030E80F853
:011B8700223B
:0517B1007F19121B7DF1
:1017B600E4F97D01FCFBFA121B79C2CB121B7D30CA
:1017C600C803ED29F9ED25E0FDEC33121B780BBBC0
:1017D60000010AEB64084A70DE051FE51FAE1E70A5
:0F17E60002051E1424CEF58274033EF583E9F04C
:0117F50022D1
:10171100E4FD7C01AB1BFA121B79EB30E004D2C96A
:101721008002C2C9EBC313FBC2CB7F05121B7D3004
:10173100C803EC2DFDEC25E0121B780ABA08D80588
:101741001FE51FAE1E7002051E1424CEF582740320
:101751003EF583EDF0E51F6406451E7004F51EF5A8
:011761001F68
:011762002264
:10186C00E4F51EF51FC2CA751B011217117F051274
:10187C001B7D751B421217111217B11217B11217DB
:10188C00B19003D1E0F51CA3E0F51D7F0A121B7D7E
:03189C00D2CA228B
:030033000216A40E
:1016A400C0E0C0F0C083C082C0D075D000C000C00C
:0D16B40001C002C003C004C005C006C0078D
:1016C10075C0FE5387DFE58730E5035387DF750873
:1016D1000075090075C0FF7F051219F775C0FE7FFF
:1016E100051219F70509E50970020508C39402E519
:0516F10008940040DF39
:1016F600D007D006D005D004D003D002D001D00048
:0B170600D0D0D082D083D0F0D0E032F1
:10199D005387DFE58730E5035387DF53C0FE53B828
:0F19AD00BF43B74053BBBF758F08D2AED2AF2236
:091BBE00D2B4D2B50000000022EF
:101A2F00D2B4D2B5000000000000000000C2B40024
:0B1A3F000000000000000000C2B52203
:101A4A00C2B4D2B5000000000000000000D2B40009
:0B1A5A000000000000000000C2B422E9
:101B4100E4FED2B5EF25E0FFA2B4E4334207C2B50B
:041B51000EBE08EECE
:011B5500226D
:1017F600E4FEEF3392B400D2B50000000000000012
:101806000000C2B5EF25E0FF0EBE08E6D2B4000028
:1018160000000000000000D2B5000000000000003B
:0A1826000000A2B49206C2B5A206AB
:011830002295
:10183100E4FEEF3392B400D2B500000000000000D6
:101841000000C2B5EF25E0FF0EBE08E6D2B40000ED
:1018510000000000000000D2B50000000000000000
:0A1861000000A2B49205C2B5A20572
:01186B00225A
:10191700AB07AA06121A2F7FA0121831AF021218AE
:1019270031AF03121831AF05121831121A4A7F0A64
:03193700021AFA97
:10193A00AB07AA06121A2F7FA2121831AF02121889
:10194A0031AF03121831AF05121831121A4A7F0A41
:03195A00021AFA74
:0E1B8800121A2F7FA11217F6121B41121A4AD1
:011B9600222C
:0E1B9700121A2F7FA31217F6121B41121A4AC0
:011BA500221D
:101A6500AD07AC06121A2F7FA01217F6AF04121796
:0A1A7500F6AF051217F6121B8822C7
:101A7F00AD07AC06121A2F7FA21217F6AF0412177A
:0A1A8F00F6AF051217F6121B97229E
:101B5600E4FEEEC39F5009E4FD0DBD18FC0E80F2B5
:011B6600225C
:101B6700E4FEEEC39F5009E4FD0DBD17FC0E80F2A5
:011B7700224B
:021ACA00AC0767
:101ACC00E4FBEBC39C500EE4FA7F0B121B670ABAC3
:051ADC0001F70B80ED95
:011AE10022E2
:021AE200AC074F
:101AE400E4FBEBC39C500EE4FA7F37121B670ABA7F
:051AF40001F70B80ED7D
:011AF90022CA
:021AFA00AC0737
:101AFC00E4FBEBC39C500EE4FA7F6E121B670ABA30
:051B0C0001F70B80ED64
:011B110022B1
:0219F7008F0A55
:1019F900E4F50BE50BC3950A500FE4F97F0A121AB7
:091A0900FA09B901F7050B80EAA6
:011A120022B1
:021A13008F1230
:101A1500E4F513E513C39512500FE4F97F0A121A82
:091A2500FA09B932F7051380EA51
:011A2E002295
:0F1BA60043B80143B701D288D2A8D2AFD2B2223E
:10147A00E4FDE4FCE9C313F9E4F58DF58BD28E3073
:10148A00B2FDC28EAF8DEFFEAB8B7A00E42BF54630
:10149A00EA3EF545C3E546949AE5459403400BD3E5
:1014AA00E546944CE54594044002C322E4F58DF5E3
:1014BA008BD28E20B2FDC28EAF8DEFFEAB8B7A003F
:1014CA00E42BF540EA3EF53FD3E54094A4E53F948A
:1014DA0003400DE540946CE53F9404500353017FAB
:1014EA00D3E5409451E53F940B400DE54094E1E586
:1014FA003F940C50034301800CEC6408600302140F
:10150A007E74412DF8A6010DED6404600302147C7B
:08151A00E544F4F5436001D340
:0115220022A6
:03000300021635AD
:0F163500C0E0C0D075D000C004C005C006C0071B
:10164400C2A8758D00758B00D28E30B2FDC28EAFEC
:101654008DEFFEAD8B7C00E42DF546EC3EF545D3D5
:10166400E5469473E545941E4027E54694C2E54556
:101674009442501D758D00758B00D28E20B2FDC230
:101684008EAF8DEFFEAD8B7C00E42DF540EC3EF586
:031694003FD2A89A
:0D169700D007D006D005D004D0D0D0E0326E
:0615B10002471200C10810
:10189F00E4F5D8F5E9F5F9F5D985474985484A853D
:1018AF004AEAE549F5FAE548254AF54AE547354953
:0A18BF00F54975DA49D2AFD20822CC
:10195D0085474985484A854AEAE549F5FAE5482526
:10196D004AF54AE5473549F549D2DED2AFC20822DC
:03003B0002197D2A
:10197D00C0E0C0D0C2D8854AEAE549F5FAE5482568
:10198D004AF54AE5473549F549D208D0D0D0E0327D
:1015B7005803860000000000000000000000000043
:1015C700000000000000000000000059032D00008B
:1015D7000000000000000000000000000000000004
:1015E70000000000000000420325004042032715C9
:1015F700404203292A8042032B3FC042034655003D
:101607004203486A4042034A000042034C154042E5
:10161700034E2A804203683FC042036A55004203D3
:0D1627006C6A40C104C102C100C101C103D1
:0418F3008E168F17A7
:1018F700E4F518F519C3E5199517E5189516500F6E
:0F1907007F01121AE20519E51970EA051880E64A
:0119160022AE
:1013A500E4FFF51890036E74FEF0A314F0A374FB2C
:1013B500F0A374F7F0A374EFF0A374DFF0A374BF88
:1013C500F0A3747FF0EF04FEEEC3940850737450DD
:1013D5002EF582E43403F583E0FD74502FF582E4A5
:0A13E5003403F583E0FCC39D50546F
:1013EF00EC751900F51A74502FF582E43403F58368
:0F13FF00EDF074502EF582E43403F583E51AF017
:10140E00746E2FF582E43403F583E0751900F51A36
:10141E00746E2EF582E43403F583E0FD746E2FF5C1
:10142E0082E43403F583EDF0746E2EF582E434031A
:05143E00F583E51AF042
:101443000E80870FEF640760030213CAE4FF745032
:101453002FF582E43403F583C083C082E0FE745128
:101463002FF582E43403F583E0FDC3EE9DD082D0F3
:0614730083F00FBF07D853
:011479002250
:1011F900E4F51890037674FEF0A314F0A374FBF0E1
:10120900A374F7F0A374EFF0A374DFF0A374BFF035
:10121900A3747FF07F08EF04FEEEC394105073743B
:10122900502EF582E43403F583E0FD74502FF582E6
:0B123900E43403F583E0FCC39D505437
:10124400EC751900F51A74502FF582E43403F58314
:0F125400EDF074502EF582E43403F583E51AF0C3
:10126300746E2FF582E43403F583E0751900F51AE3
:10127300746E2EF582E43403F583E0FD746E2FF56E
:1012830082E43403F583EDF0746E2EF582E43403C7
:05129300F583E51AF0EF
:101298000E80870FEF640F600302121F7F087450DF
:1012A8002FF582E43403F583C083C082E0FE7451D5
:1012B8002FF582E43403F583E0FDC3EE9DD082D0A0
:0612C80083F00FBF0FD8F8
:0112CE0022FD
:1012CF00E4F51890037E74FEF0A314F0A374FBF002
:1012DF00A374F7F0A374EFF0A374DFF0A374BFF05F
:1012EF00A3747FF07F10EF04FEEEC3941850737455
:1012FF00502EF582E43403F583E0FD74502FF58210
:0B130F00E43403F583E0FCC39D505460
:10131A00EC751900F51A74502FF582E43403F5833D
:0F132A00EDF074502EF582E43403F583E51AF0EC
:10133900746E2FF582E43403F583E0751900F51A0C
:10134900746E2EF582E43403F583E0FD746E2FF597
:1013590082E43403F583EDF0746E2EF582E43403F0
:05136900F583E51AF018
:10136E000E80870FEF641760030212F57F10745022
:10137E002FF582E43403F583C083C082E0FE7451FE
:10138E002FF582E43403F583E0FDC3EE9DD082D0C9
:06139E0083F00FBF17D819
:0113A4002226
:1018C900E4F517E5172420FFE433FE121A65742D99
:1018D9002517F582E43403F583EFF00517E517C3FF
:0918E900941840DFE4900345F07F
:0118F20022D3
:100FD300E4F517F51774862517F582E43403F583D2
:100FE300E0FF74502517F582E43403F583EFF00531
:100FF30017E517B418DF1213A51211F91212CF7FD8
:10100300007EEE12000E7580FF7F01121AE2E4F5F6
:1010130017C374079517FFE49400FE74502FF582ED
:1010230074033EF583E0FF121B56C374079517FF45
:10103300E49400FE746E2FF58274033EF583E05250
:10104300800517E517C3940840C72007030080FAFB
:10105300C28C7F007EEE12000E7590FF7F01121A84
:10106300E2E4F517C3740F9517FFE49400FE745080
:101073002FF58274033EF583E0FF121B56C3740FF2
:101083009517FFE49400FE746E2FF58274033EF50A
:1010930083E052900517E517C3940840C720070360
:1010A3000080FAC28C7F007EEE12000E75A0FF7FD7
:1010B30001121AE2E4F517C374179517FFE49400BD
:1010C300FE74502FF58274033EF583E0FF121B5626
:1010D300C374179517FFE49400FE746E2FF58274A2
:1010E300033EF583E052A00517E517C3940840C7F4
:0810F3002007030080FAC28C03
:0110FB0022D2
:060D27007B017A00790057
:060D2D008B128A138914E9
:100D33001218C9E4F515742D2515F582E43403F56D
:100D430083E0AB12AA13A9148515827583001211CF
:100D5300298515827583001210FCD394FA4011ABD8
:100D630012AA13A91485158275830074FA12115CF3
:100D7300AB12AA13A9148515827583001210FCC344
:100D83009400500A851582758300E412115C0515E1
:100D9300E515B418A1E4F515AB12AA13A91485152A
:100DA300827583001210FCFF74862515F582E434E6
:100DB30003F583E0FEEFD39E4052EFFDEEFFED9F80
:100DC300FFE49400FE7C007D0A12117E749E2515BB
:100DD300F582E43403F583EFF08515827583001201
:100DE30010FCFF74862515F582E43403F583E0FDDA
:100DF300C3EF9DFFE49400FE7C007D0A12117E7414
:100E0300B62515F582E43403F583EDF0AB12AA138E
:100E1300A9148515827583001210FCFF74862515AD
:100E2300F582E43403F583E0FEEFC39E504FEFFDFC
:100E3300EEC39DFFE49400FE7C007D0A12117E74D4
:100E43009E2515F582E43403F583EFF0851582754D
:100E530083001210FCFF74862515F582E43403F534
:100E630083E0C39FFFE49400FE7C007D0A12117EA1
:100E730074B62515F582E43403F583EDF00515E525
:100E83001564186003020D9BE4F516AB12AA13A9AF
:100E9300148516827583001210FCFF74862516F5DF
:100EA30082E43403F583E0FEEFD39E401B74B62542
:100EB30016F582E43403F583E0FF74862516F58284
:100EC300E43403F583E02FF0AB12AA13A9148516BB
:100ED300827583001210FCFF74862516F582E434B4
:100EE30003F583E0FEEFC39E502474862516F58236
:100EF300E43403F583C083C08274B62516F582E417
:100F03003403F583E0FFC3EE9FD082D083F0051650
:100F1300E51664186003020E8E120FD3E4F515E490
:100F2300F516AB12AA13A914851682758300121045
:100F3300FCFF74862516F582E43403F583E0FEEFA7
:100F4300D39E401B749E2516F582E43403F583E09B
:100F5300FF74862516F582E43403F583E02FF0ABA6
:100F630012AA13A9148516827583001210FCFF744C
:100F7300862516F582E43403F583E0FEEFC39E5025
:100F83002474862516F582E43403F583C083C08276
:100F9300749E2516F582E43403F583E0FFC3EE9FC8
:100FA300D082D083F00516E51664186003020F257E
:100FB300120FD3AB12AA13A9149000181210FCFF3E
:0F0FC300121AFA0515E515C3940A5003020F22FE
:010FD20022FC
:10176300E4F515F5120515E4F514AF147E00121A0D
:101773006574862514F582E43403F583EFF00514CC
:10178300E514C3941840E3120FD3E515C3940A502C
:10179300077513141513800575130A0513AF137E0C
:0D17A300001218F30512E512C3941E40B8A1
:0117B0002216
:0300230002075A77
:10075A00C0E0C0F0C083C082C0D075D000C000C065
:0D076A0001C002C003C004C005C006C007E6
:10077700209803020D0CC29874232522F8A6990528
:1007870022E522641A6003020D0CF522E53C1211E2
:10079700D307FC01083202086803089E0408D40541
:1007A700090A0609400709760809AC0909E20A0A95
:1007B700170B0A4C0C0A86EA0AA9EB0AD0EC0AF7CF
:1007C700ED0B1EEF0B45F00B6CF10B93F20BBAF32D
:1007D7000BE1F40C08F50C2FF60C56F70C7DF80C12
:1007E70087F90C90FA0C99FB0CA0FC0CE4FD0CEDBE
:1007F700FE00000D0CC298753C00750D0090032695
:10080700E0250DFF900325E03400FE7423250DF845
:10081700E6FD121917050DE50DC3941A40DF900385
:1008270026E02420F0900325020A7FC298753C0039
:10083700750D00900328E0250DFF900327E0340095
:10084700FE7423250DF8E6FD121917050DE50DC3F6
:10085700941A40DF900328E02420F0900327020A2F
:100867007FC298753C00750D0090032AE0250DFFA7
:10087700900329E03400FE7423250DF8E6FD1219D4
:1008870017050DE50DC3941A40DF90032AE02420D5
:10089700F0900329020A7FC298753C00750D0090FD
:1008A700032CE0250DFF90032BE03400FE74232575
:1008B7000DF8E6FD121917050DE50DC3941A40DF73
:1008C70090032CE02420F090032B020A7FC2987536
:1008D7003C00750D00900347E0250DFF900346E0AF
:1008E7003400FE7423250DF8E6FD121917050DE5F2
:1008F7000DC3941A40DF900347E02420F09003468D
:10090700020A7FC298753C00750D00900349E025E7
:100917000DFF900348E03400FE7423250DF8E6FD33
:10092700121917050DE50DC3941A40DF900349E02E
:100937002420F0900348020A7FC298753C00750D89
:100947000090034BE0250DFF90034AE03400FE744E
:1009570023250DF8E6FD12193A050DE50DC3941A86
:1009670040DF90034BE02420F090034A020A7FC245
:1009770098753C00750D0090034DE0250DFF900321
:100987004CE03400FE7423250DF8E6FD12193A05F4
:100997000DE50DC3941A40DF90034DE02420F0903D
:1009A700034C020A7FC298753C00750D0090034FF7
:1009B700E0250DFF90034EE03400FE7423250DF86B
:1009C700E6FD12193A050DE50DC3941A40DF9003B1
:1009D7004FE02420F090034E020A7FC298753C0036
:1009E700750D00900369E0250DFF900368E0340062
:1009F700FE7423250DF8E6FD12193A050DE50DC322
:100A0700941A40DF900369E02420F090036880681F
:100A1700C298753C00750D0090036BE0250DFF90A3
:100A2700036AE03400FE7423250DF8E6FD12193A37
:100A3700050DE50DC3941A40DF90036BE02420F009
:100A470090036A8033C298753C00750D0090036D62
:100A5700E0250DFF90036CE03400FE7423250DF8AC
:100A6700E6FD12193A050DE50DC3941A40DF900310
:100A77006DE02420F090036CE03400F0020D0CC20E
:100A870098753C00750D00E50D2420FFE433FE74D6
:100A970023250DF8E6FD121917050DE50DC394186A
:100AA70040E5C298753C00750D00900326E0250DC2
:100AB700FF900325E03400FE7DFF121917050DE5B1
:100AC7000DC3941A40E4020D0CC298753C00750DD5
:100AD70000900328E0250DFF900327E03400FE7DFA
:100AE700FF121917050DE50DC3941A40E4020D0C0A
:100AF700C298753C00750D0090032AE0250DFF9004
:100B07000329E03400FE7DFF121917050DE50DC31B
:100B1700941A40E4020D0CC298753C00750D0090C4
:100B2700032CE0250DFF90032BE03400FE7DFF1220
:100B37001917050DE50DC3941A40E4020D0CC29870
:100B4700753C00750D00900347E0250DFF900346A7
:100B5700E03400FE7DFF121917050DE50DC3941A49
:100B670040E4020D0CC298753C00750D00900349D6
:100B7700E0250DFF900348E03400FE7DFF121917B2
:100B8700050DE50DC3941A40E4020D0CC298753C9F
:100B970000750D0090034BE0250DFF90034AE034EC
:100BA70000FE7DFF12193A050DE50DC3941A40E4C6
:100BB700020D0CC298753C00750D0090034DE025A1
:100BC7000DFF90034CE03400FE7DFF12193A050D2E
:100BD700E50DC3941A40E4020D0CC298753C0075EC
:100BE7000D0090034FE0250DFF90034EE03400FE0B
:100BF7007DFF12193A050DE50DC3941A40E4020D65
:100C07000CC298753C00750D00900369E0250DFF37
:100C1700900368E03400FE7DFF12193A050DE50DDB
:100C2700C3941A40E4020D0CC298753C00750D0080
:100C370090036BE0250DFF90036AE03400FE7DFF13
:100C470012193A050DE50DC3941A40E4020D0CC2C2
:100C570098753C00750D0090036DE0250DFF90031E
:100C67006CE03400FE7DFF12193A050DE50DC394C3
:100C77001A40E4020D0CC298753C00C203020D0C29
:100C8700C298753C00D203807CC298753C00D200A4
:100C97008073C298753C00D202C298753C007522D9
:100CA7000074232522F8E6FFE522FD3395E0FC7565
:100CB700F01AE53DA42419F582E5F03400F583E543
:100CC700822DF582E5833CF583EFF00522E522B41A
:100CD70019CF053DE523F4702CD2018028C2987501
:100CE7003C00D204801FC298753C00750D00AF0D03
:100CF7007E007423250DF8E6FD121917050DE50D85
:050D0700C3941A40E94D
:100D0C00D007D006D005D004D003D002D001D0003B
:0B0D1C00D0D0D082D083D0F0D0E032E5
:101B1200121A99121B2A121BBE12199DC2C0C2C1EF
:081B22007F01121AE20218C94A
:10004600758170E4F593F594F591F592F595F5962D
:10005600121B127580FF7590FF75A0FF7F01121AA3
:10006600131217637F01121A1330020BC2027B00B0
:100076007A007923120D2D30040BC2047B007A001E
:100086007923120D2D300027C2007FFB121BC7E417
:10009600F50EF50FAF0FAE0E121A65121BC7050F40
:1000A600E50F7002050EC39418E50E940040E53086
:1000B6000151C201E4F53EE4F53D75F01AE53EA4B2
:1000C6002419F582E5F03400F583E582253DF582B5
:1000D600E43583F583E0FF7400253DF582E43400C2
:1000E600F583EFF0053DE53DB419CF900000E0F44F
:1000F600600C120D27053EE53EC3941E40B9E4F59B
:100106003DF53E30030302006FE4F50EF50F1218BD
:100116006C7F04121BC7AF1C121BC77F05121BC7BF
:10012600AF1D121BC7050FE50F7002050EC3940322
:10013600E50E940040D8E51C64FE600620C103026B
:1001460002AF751015751140C3E5119480E5109442
:100156002A5049E4F50EF50FE511250FFFE5103598
:100166000EFE121A657400250FF582E43400F5833D
:10017600EFF0050FE50F7002050EC39419E50E9416
:100186000040D5900000E0B4FF028010120D2774E5
:10019600202511F511E43510F51080AC75100075A9
:1001A6001140C3E5119440E51094155049E4F50E4D
:1001B600F50FE511250FFFE510350EFE121A6574D1
:1001C60000250FF582E43400F583EFF0050FE50F07
:1001D6007002050EC39419E50E940040D5900000F8
:1001E600E0B4FF028010120D2774202511F511E4EA
:1001F6003510F51080AC751015751140C3E51194D6
:1002060080E510942A5049E4F50EF50FE511250F07
:10021600FFE510350EFE121A7F7400250FF582E4F5
:100226003400F583EFF0050FE50F7002050EC39459
:1002360019E50E940040D5900000E0B4FF0280104E
:10024600120D2774202511F511E43510F51080AC38
:10025600E4F510F511C3E5119440E51094155049E5
:10026600E4F50EF50FE511250FFFE510350EFE122C
:100276001A7F7400250FF582E43400F583EFF0054C
:100286000FE50F7002050EC39419E50E940040D5D4
:10029600900000E0B4FF028010120D277420251193
:1002A600F511E43510F51080ACE51C2481700302CD
:1002B60003DF24C0700302038224E0606524F0603B
:1002C6000302043975102A751180C3E51194C0E53F
:1002D60010943F4003020439E4F50EF50FE51125AD
:1002E6000FFFE510350EFE121A657400250FF58214
:1002F600E43400F583EFF0050FE50F7002050EC339
:100306009419E50E940040D5900000E0B4FF030276
:100316000439120D2774202511F511E43510F51056
:1003260080A875103F7511C0C3E5109455400302AF
:100336000439E4F50EF50FE511250FFFE510350E2E
:10034600FE121A657400250FF582E43400F583EF7A
:10035600F0050FE50F7002050EC39419E50E940023
:1003660040D5900000E0B4FF03020439120D277453
:10037600202511F511E43510F51080AC7510557572
:100386001100C3E5119440E510946A400302043954
:10039600E4F50EF50FE511250FFFE510350EFE12FB
:1003A6001A657400250FF582E43400F583EFF00535
:1003B6000FE50F7002050EC39419E50E940040D5A3
:1003C600900000E0B4FF02806A120D277420251108
:1003D600F511E43510F51080A975106A751140C342
:1003E600E5119480E510947F5049E4F50EF50FE58C
:1003F60011250FFFE510350EFE121A657400250F44
:10040600F582E43400F583EFF0050FE50F70020581
:100416000EC39419E50E940040D5900000E0B4FF99
:10042600028010120D2774202511F511E43510F500
:100436001080ACE51D248170030206FC24C0700305
:1004460002069E24E0700302064424F070030205AF
:10045600E624F8700302058824FC606B24FE700312
:1004660002052B14600302006F751000751140C35E
:10047600E5119440E5109415400302006FE4F50E73
:10048600F50FE511250FFFE510350EFE121A6574FE
:1004960000250FF582E43400F583EFF0050FE50F34
:1004A6007002050EC39419E50E940040D590000025
:1004B600E0B4FF0302006F120D2774202511F51119
:1004C600E43510F51080A8751015751140C3E511B7
:1004D6009480E510942A400302006FE4F50EF50FB0
:1004E600E511250FFFE510350EFE121A657400257D
:1004F6000FF582E43400F583EFF0050FE50F700287
:10050600050EC39419E50E940040D5900000E0B4A2
:10051600FF0302006F120D2774202511F511E43533
:1005260010F51080A8E4F510F511C3E5119440E527
:10053600109415400302006FE4F50EF50FE5112542
:100546000FFFE510350EFE121A7F7400250FF58297
:10055600E43400F583EFF0050FE50F7002050EC3D6
:100566009419E50E940040D5900000E0B4FF030214
:10057600006F120D2774202511F511E43510F510C2
:1005860080A8751015751140C3E5119480E5109487
:100596002A400302006FE4F50EF50FE511250FFF63
:1005A600E510350EFE121A7F7400250FF582E4342D
:1005B60000F583EFF0050FE50F7002050EC39419E1
:1005C600E50E940040D5900000E0B4FF0302006FF2
:1005D600120D2774202511F511E43510F51080A8A9
:1005E60075102A751180C3E51194C0E510943F403B
:1005F6000302006FE4F50EF50FE511250FFFE51078
:10060600350EFE121A7F7400250FF582E43400F5CC
:1006160083EFF0050FE50F7002050EC39419E50E82
:10062600940040D5900000E0B4FF0302006F120D65
:100636002774202511F511E43510F51080A87510E2
:100646003F7511C0C3E5109455400302006FE4F5F1
:100656000EF50FE511250FFFE510350EFE121A7F78
:100666007400250FF582E43400F583EFF0050FE5FD
:100676000F7002050EC39419E50E940040D5900044
:1006860000E0B4FF0302006F120D2774202511F558
:1006960011E43510F51080AC751055751100C3E5E1
:1006A600119440E510946A400302006FE4F50EF5DC
:1006B6000FE511250FFFE510350EFE121A7F7400A7
:1006C600250FF582E43400F583EFF0050FE50F7092
:1006D60002050EC39419E50E940040D5900000E083
:1006E600B4FF0302006F120D2774202511F511E4E3
:1006F6003510F51080A875106A751140C3E5119480
:1007060080E510947F400302006FE4F50EF50FE5D7
:1007160011250FFFE510350EFE121A7F7400250F06
:10072600F582E43400F583EFF0050FE50F7002055E
:100736000EC39419E50E940040D5900000E0B4FF76
:100746000302006F120D2774202511F511E43510F0
:04075600F51080A872
:03000000021523C3
:0C152300787FE4F6D8FD75814A02156A55
:1010FC00BB010CE58229F582E5833AF583E02250A9
:10110C0006E92582F8E622BBFE06E92582F8E222F2
:0D111C00E58229F582E5833AF583E493220C
:10112900BB010FF8E58229F582E5833AF583E028CA
:10113900F0225009C58229F8E58226F622BBFE096C
:10114900C58229F8E22582F222F8EA2583F583E9A6
:03115900932822B6
:10115C00F8BB010DE58229F582E5833AF583E8F0C9
:10116C00225006E92582C8F622BBFE05E92582C875
:02117C00F2225D
:10117E00BC000BBE0029EF8DF084FFADF022E4CC55
:10118E00F875F008EF2FFFEE33FEEC33FCEE9DEC1E
:10119E00984005FCEE9DFE0FD5F0E9E4CEFD22ED64
:1011AE00F8F5F0EE8420D21CFEADF075F008EF2FAE
:1011BE00FFED33FD4007985006D5F0F222C398FD9F
:0511CE000FD5F0EA223C
:1011D300D083D082F8E4937012740193700DA3A3AB
:1011E30093F8740193F5828883E4737402936860BF
:0611F300EFA3A3A380DFBF
:10152F00020046E493A3F8E493A34003F68001F28C
:10153F0008DFF48029E493A3F85407240CC8C333BD
:10154F00C4540F4420C8834004F456800146F6DF8C
:10155F00E4800B01020408102040809015AFE47E58
:10156F00019360BCA3FF543F30E509541FFEE49381
:10157F00A360010ECF54C025E060A840B8E493A348
:10158F00FAE493A3F8E493A3C8C582C8CAC583CA73
:10159F00F0A3C8C582C8CAC583CADFE9DEE780BE2B
:0116340000B5
:00000001FF
